{"contracts/Protocol.sol":{"Protocol":{"abi":[{"inputs":[{"internalType":"address","name":"gateway_","type":"address"},{"internalType":"address","name":"gasReceiver_","type":"address"},{"internalType":"uint256","name":"number_","type":"uint256"}],"stateMutability":"nonpayable","type":"constructor"},{"inputs":[],"name":"InvalidAddress","type":"error"},{"inputs":[],"name":"NotApprovedByGateway","type":"error"},{"inputs":[{"internalType":"bytes32","name":"commandId","type":"bytes32"},{"internalType":"string","name":"sourceChain","type":"string"},{"internalType":"string","name":"sourceAddress","type":"string"},{"internalType":"bytes","name":"payload","type":"bytes"}],"name":"execute","outputs":[],"stateMutability":"nonpayable","type":"function"},{"inputs":[{"internalType":"bytes32","name":"commandId","type":"bytes32"},{"internalType":"string","name":"sourceChain","type":"string"},{"internalType":"string","name":"sourceAddress","type":"string"},{"internalType":"bytes","name":"payload","type":"bytes"},{"internalType":"string","name":"tokenSymbol","type":"string"},{"internalType":"uint256","name":"amount","type":"uint256"}],"name":"executeWithToken","outputs":[],"stateMutability":"nonpayable","type":"function"},{"inputs":[],"name":"gateway","outputs":[{"internalType":"contract IAxelarGateway","name":"","type":"address"}],"stateMutability":"view","type":"function"},{"inputs":[],"name":"getNumber","outputs":[{"internalType":"uint256","name":"","type":"uint256"}],"stateMutability":"view","type":"function"}],"evm":{"bytecode":{"linkReferences":{},"object":"60a060405234801561001057600080fd5b50604051610b14380380610b1483398181016040528101906100329190610176565b82600073ffffffffffffffffffffffffffffffffffffffff168173ffffffffffffffffffffffffffffffffffffffff1603610099576040517fe6c4247b00000000000000000000000000000000000000000000000000000000815260040160405180910390fd5b8073ffffffffffffffffffffffffffffffffffffffff1660808173ffffffffffffffffffffffffffffffffffffffff168152505050806000819055505050506101c9565b600080fd5b600073ffffffffffffffffffffffffffffffffffffffff82169050919050565b600061010d826100e2565b9050919050565b61011d81610102565b811461012857600080fd5b50565b60008151905061013a81610114565b92915050565b6000819050919050565b61015381610140565b811461015e57600080fd5b50565b6000815190506101708161014a565b92915050565b60008060006060848603121561018f5761018e6100dd565b5b600061019d8682870161012b565b93505060206101ae8682870161012b565b92505060406101bf86828701610161565b9150509250925092565b6080516109236101f16000396000818160c701528181610107015261022301526109236000f3fe608060405234801561001057600080fd5b506004361061004c5760003560e01c8063116191b6146100515780631a98b2e01461006f578063491606581461008b578063f2c9ecd8146100a7575b600080fd5b6100596100c5565b60405161006691906103b0565b60405180910390f35b610089600480360381019061008491906104fc565b6100e9565b005b6100a560048036038101906100a0919061060c565b610205565b005b6100af610315565b6040516100bc91906106e4565b60405180910390f35b7f000000000000000000000000000000000000000000000000000000000000000081565b600085856040516100fb92919061073e565b604051809103902090507f000000000000000000000000000000000000000000000000000000000000000073ffffffffffffffffffffffffffffffffffffffff16631876eed98c8c8c8c8c878b8b8b6040518a63ffffffff1660e01b815260040161016e999897969594939291906107b5565b6020604051808303816000875af115801561018d573d6000803e3d6000fd5b505050506040513d601f19601f820116820180604052508101906101b19190610869565b6101e7576040517f500c44b400000000000000000000000000000000000000000000000000000000815260040160405180910390fd5b6101f88a8a8a8a8a8a8a8a8a61031e565b5050505050505050505050565b6000828260405161021792919061073e565b604051809103902090507f000000000000000000000000000000000000000000000000000000000000000073ffffffffffffffffffffffffffffffffffffffff16635f6970c38989898989876040518763ffffffff1660e01b815260040161028496959493929190610896565b6020604051808303816000875af11580156102a3573d6000803e3d6000fd5b505050506040513d601f19601f820116820180604052508101906102c79190610869565b6102fd576040517f500c44b400000000000000000000000000000000000000000000000000000000815260040160405180910390fd5b61030b878787878787610329565b5050505050505050565b60008054905090565b505050505050505050565b505050505050565b600073ffffffffffffffffffffffffffffffffffffffff82169050919050565b6000819050919050565b600061037661037161036c84610331565b610351565b610331565b9050919050565b60006103888261035b565b9050919050565b600061039a8261037d565b9050919050565b6103aa8161038f565b82525050565b60006020820190506103c560008301846103a1565b92915050565b600080fd5b600080fd5b6000819050919050565b6103e8816103d5565b81146103f357600080fd5b50565b600081359050610405816103df565b92915050565b600080fd5b600080fd5b600080fd5b60008083601f8401126104305761042f61040b565b5b8235905067ffffffffffffffff81111561044d5761044c610410565b5b60208301915083600182028301111561046957610468610415565b5b9250929050565b60008083601f8401126104865761048561040b565b5b8235905067ffffffffffffffff8111156104a3576104a2610410565b5b6020830191508360018202830111156104bf576104be610415565b5b9250929050565b6000819050919050565b6104d9816104c6565b81146104e457600080fd5b50565b6000813590506104f6816104d0565b92915050565b60008060008060008060008060008060c08b8d03121561051f5761051e6103cb565b5b600061052d8d828e016103f6565b9a505060208b013567ffffffffffffffff81111561054e5761054d6103d0565b5b61055a8d828e0161041a565b995099505060408b013567ffffffffffffffff81111561057d5761057c6103d0565b5b6105898d828e0161041a565b975097505060608b013567ffffffffffffffff8111156105ac576105ab6103d0565b5b6105b88d828e01610470565b955095505060808b013567ffffffffffffffff8111156105db576105da6103d0565b5b6105e78d828e0161041a565b935093505060a06105fa8d828e016104e7565b9150509295989b9194979a5092959850565b60008060008060008060006080888a03121561062b5761062a6103cb565b5b60006106398a828b016103f6565b975050602088013567ffffffffffffffff81111561065a576106596103d0565b5b6106668a828b0161041a565b9650965050604088013567ffffffffffffffff811115610689576106886103d0565b5b6106958a828b0161041a565b9450945050606088013567ffffffffffffffff8111156106b8576106b76103d0565b5b6106c48a828b01610470565b925092505092959891949750929550565b6106de816104c6565b82525050565b60006020820190506106f960008301846106d5565b92915050565b600081905092915050565b82818337600083830152505050565b600061072583856106ff565b935061073283858461070a565b82840190509392505050565b600061074b828486610719565b91508190509392505050565b610760816103d5565b82525050565b600082825260208201905092915050565b6000601f19601f8301169050919050565b60006107948385610766565b93506107a183858461070a565b6107aa83610777565b840190509392505050565b600060c0820190506107ca600083018c610757565b81810360208301526107dd818a8c610788565b905081810360408301526107f281888a610788565b90506108016060830187610757565b8181036080830152610814818587610788565b905061082360a08301846106d5565b9a9950505050505050505050565b60008115159050919050565b61084681610831565b811461085157600080fd5b50565b6000815190506108638161083d565b92915050565b60006020828403121561087f5761087e6103cb565b5b600061088d84828501610854565b91505092915050565b60006080820190506108ab6000830189610757565b81810360208301526108be818789610788565b905081810360408301526108d3818587610788565b90506108e26060830184610757565b97965050505050505056fea2646970667358221220b498c9488e1b9c09717cbebf0e0c32f5a289c3d9f994d72db93558aa6dfde90064736f6c63430008120033","opcodes":"PUSH1 0xA0 PUSH1 0x40 MSTORE CALLVALUE DUP1 ISZERO PUSH2 0x10 JUMPI PUSH1 0x0 DUP1 REVERT JUMPDEST POP PUSH1 0x40 MLOAD PUSH2 0xB14 CODESIZE SUB DUP1 PUSH2 0xB14 DUP4 CODECOPY DUP2 DUP2 ADD PUSH1 0x40 MSTORE DUP2 ADD SWAP1 PUSH2 0x32 SWAP2 SWAP1 PUSH2 0x176 JUMP JUMPDEST DUP3 PUSH1 0x0 PUSH20 0xFFFFFFFFFFFFFFFFFFFFFFFFFFFFFFFFFFFFFFFF AND DUP2 PUSH20 0xFFFFFFFFFFFFFFFFFFFFFFFFFFFFFFFFFFFFFFFF AND SUB PUSH2 0x99 JUMPI PUSH1 0x40 MLOAD PUSH32 0xE6C4247B00000000000000000000000000000000000000000000000000000000 DUP2 MSTORE PUSH1 0x4 ADD PUSH1 0x40 MLOAD DUP1 SWAP2 SUB SWAP1 REVERT JUMPDEST DUP1 PUSH20 0xFFFFFFFFFFFFFFFFFFFFFFFFFFFFFFFFFFFFFFFF AND PUSH1 0x80 DUP2 PUSH20 0xFFFFFFFFFFFFFFFFFFFFFFFFFFFFFFFFFFFFFFFF AND DUP2 MSTORE POP POP POP DUP1 PUSH1 0x0 DUP2 SWAP1 SSTORE POP POP POP POP PUSH2 0x1C9 JUMP JUMPDEST PUSH1 0x0 DUP1 REVERT JUMPDEST PUSH1 0x0 PUSH20 0xFFFFFFFFFFFFFFFFFFFFFFFFFFFFFFFFFFFFFFFF DUP3 AND SWAP1 POP SWAP2 SWAP1 POP JUMP JUMPDEST PUSH1 0x0 PUSH2 0x10D DUP3 PUSH2 0xE2 JUMP JUMPDEST SWAP1 POP SWAP2 SWAP1 POP JUMP JUMPDEST PUSH2 0x11D DUP2 PUSH2 0x102 JUMP JUMPDEST DUP2 EQ PUSH2 0x128 JUMPI PUSH1 0x0 DUP1 REVERT JUMPDEST POP JUMP JUMPDEST PUSH1 0x0 DUP2 MLOAD SWAP1 POP PUSH2 0x13A DUP2 PUSH2 0x114 JUMP JUMPDEST SWAP3 SWAP2 POP POP JUMP JUMPDEST PUSH1 0x0 DUP2 SWAP1 POP SWAP2 SWAP1 POP JUMP JUMPDEST PUSH2 0x153 DUP2 PUSH2 0x140 JUMP JUMPDEST DUP2 EQ PUSH2 0x15E JUMPI PUSH1 0x0 DUP1 REVERT JUMPDEST POP JUMP JUMPDEST PUSH1 0x0 DUP2 MLOAD SWAP1 POP PUSH2 0x170 DUP2 PUSH2 0x14A JUMP JUMPDEST SWAP3 SWAP2 POP POP JUMP JUMPDEST PUSH1 0x0 DUP1 PUSH1 0x0 PUSH1 0x60 DUP5 DUP7 SUB SLT ISZERO PUSH2 0x18F JUMPI PUSH2 0x18E PUSH2 0xDD JUMP JUMPDEST JUMPDEST PUSH1 0x0 PUSH2 0x19D DUP7 DUP3 DUP8 ADD PUSH2 0x12B JUMP JUMPDEST SWAP4 POP POP PUSH1 0x20 PUSH2 0x1AE DUP7 DUP3 DUP8 ADD PUSH2 0x12B JUMP JUMPDEST SWAP3 POP POP PUSH1 0x40 PUSH2 0x1BF DUP7 DUP3 DUP8 ADD PUSH2 0x161 JUMP JUMPDEST SWAP2 POP POP SWAP3 POP SWAP3 POP SWAP3 JUMP JUMPDEST PUSH1 0x80 MLOAD PUSH2 0x923 PUSH2 0x1F1 PUSH1 0x0 CODECOPY PUSH1 0x0 DUP2 DUP2 PUSH1 0xC7 ADD MSTORE DUP2 DUP2 PUSH2 0x107 ADD MSTORE PUSH2 0x223 ADD MSTORE PUSH2 0x923 PUSH1 0x0 RETURN INVALID PUSH1 0x80 PUSH1 0x40 MSTORE CALLVALUE DUP1 ISZERO PUSH2 0x10 JUMPI PUSH1 0x0 DUP1 REVERT JUMPDEST POP PUSH1 0x4 CALLDATASIZE LT PUSH2 0x4C JUMPI PUSH1 0x0 CALLDATALOAD PUSH1 0xE0 SHR DUP1 PUSH4 0x116191B6 EQ PUSH2 0x51 JUMPI DUP1 PUSH4 0x1A98B2E0 EQ PUSH2 0x6F JUMPI DUP1 PUSH4 0x49160658 EQ PUSH2 0x8B JUMPI DUP1 PUSH4 0xF2C9ECD8 EQ PUSH2 0xA7 JUMPI JUMPDEST PUSH1 0x0 DUP1 REVERT JUMPDEST PUSH2 0x59 PUSH2 0xC5 JUMP JUMPDEST PUSH1 0x40 MLOAD PUSH2 0x66 SWAP2 SWAP1 PUSH2 0x3B0 JUMP JUMPDEST PUSH1 0x40 MLOAD DUP1 SWAP2 SUB SWAP1 RETURN JUMPDEST PUSH2 0x89 PUSH1 0x4 DUP1 CALLDATASIZE SUB DUP2 ADD SWAP1 PUSH2 0x84 SWAP2 SWAP1 PUSH2 0x4FC JUMP JUMPDEST PUSH2 0xE9 JUMP JUMPDEST STOP JUMPDEST PUSH2 0xA5 PUSH1 0x4 DUP1 CALLDATASIZE SUB DUP2 ADD SWAP1 PUSH2 0xA0 SWAP2 SWAP1 PUSH2 0x60C JUMP JUMPDEST PUSH2 0x205 JUMP JUMPDEST STOP JUMPDEST PUSH2 0xAF PUSH2 0x315 JUMP JUMPDEST PUSH1 0x40 MLOAD PUSH2 0xBC SWAP2 SWAP1 PUSH2 0x6E4 JUMP JUMPDEST PUSH1 0x40 MLOAD DUP1 SWAP2 SUB SWAP1 RETURN JUMPDEST PUSH32 0x0 DUP2 JUMP JUMPDEST PUSH1 0x0 DUP6 DUP6 PUSH1 0x40 MLOAD PUSH2 0xFB SWAP3 SWAP2 SWAP1 PUSH2 0x73E JUMP JUMPDEST PUSH1 0x40 MLOAD DUP1 SWAP2 SUB SWAP1 KECCAK256 SWAP1 POP PUSH32 0x0 PUSH20 0xFFFFFFFFFFFFFFFFFFFFFFFFFFFFFFFFFFFFFFFF AND PUSH4 0x1876EED9 DUP13 DUP13 DUP13 DUP13 DUP13 DUP8 DUP12 DUP12 DUP12 PUSH1 0x40 MLOAD DUP11 PUSH4 0xFFFFFFFF AND PUSH1 0xE0 SHL DUP2 MSTORE PUSH1 0x4 ADD PUSH2 0x16E SWAP10 SWAP9 SWAP8 SWAP7 SWAP6 SWAP5 SWAP4 SWAP3 SWAP2 SWAP1 PUSH2 0x7B5 JUMP JUMPDEST PUSH1 0x20 PUSH1 0x40 MLOAD DUP1 DUP4 SUB DUP2 PUSH1 0x0 DUP8 GAS CALL ISZERO DUP1 ISZERO PUSH2 0x18D JUMPI RETURNDATASIZE PUSH1 0x0 DUP1 RETURNDATACOPY RETURNDATASIZE PUSH1 0x0 REVERT JUMPDEST POP POP POP POP PUSH1 0x40 MLOAD RETURNDATASIZE PUSH1 0x1F NOT PUSH1 0x1F DUP3 ADD AND DUP3 ADD DUP1 PUSH1 0x40 MSTORE POP DUP2 ADD SWAP1 PUSH2 0x1B1 SWAP2 SWAP1 PUSH2 0x869 JUMP JUMPDEST PUSH2 0x1E7 JUMPI PUSH1 0x40 MLOAD PUSH32 0x500C44B400000000000000000000000000000000000000000000000000000000 DUP2 MSTORE PUSH1 0x4 ADD PUSH1 0x40 MLOAD DUP1 SWAP2 SUB SWAP1 REVERT JUMPDEST PUSH2 0x1F8 DUP11 DUP11 DUP11 DUP11 DUP11 DUP11 DUP11 DUP11 DUP11 PUSH2 0x31E JUMP JUMPDEST POP POP POP POP POP POP POP POP POP POP POP JUMP JUMPDEST PUSH1 0x0 DUP3 DUP3 PUSH1 0x40 MLOAD PUSH2 0x217 SWAP3 SWAP2 SWAP1 PUSH2 0x73E JUMP JUMPDEST PUSH1 0x40 MLOAD DUP1 SWAP2 SUB SWAP1 KECCAK256 SWAP1 POP PUSH32 0x0 PUSH20 0xFFFFFFFFFFFFFFFFFFFFFFFFFFFFFFFFFFFFFFFF AND PUSH4 0x5F6970C3 DUP10 DUP10 DUP10 DUP10 DUP10 DUP8 PUSH1 0x40 MLOAD DUP8 PUSH4 0xFFFFFFFF AND PUSH1 0xE0 SHL DUP2 MSTORE PUSH1 0x4 ADD PUSH2 0x284 SWAP7 SWAP6 SWAP5 SWAP4 SWAP3 SWAP2 SWAP1 PUSH2 0x896 JUMP JUMPDEST PUSH1 0x20 PUSH1 0x40 MLOAD DUP1 DUP4 SUB DUP2 PUSH1 0x0 DUP8 GAS CALL ISZERO DUP1 ISZERO PUSH2 0x2A3 JUMPI RETURNDATASIZE PUSH1 0x0 DUP1 RETURNDATACOPY RETURNDATASIZE PUSH1 0x0 REVERT JUMPDEST POP POP POP POP PUSH1 0x40 MLOAD RETURNDATASIZE PUSH1 0x1F NOT PUSH1 0x1F DUP3 ADD AND DUP3 ADD DUP1 PUSH1 0x40 MSTORE POP DUP2 ADD SWAP1 PUSH2 0x2C7 SWAP2 SWAP1 PUSH2 0x869 JUMP JUMPDEST PUSH2 0x2FD JUMPI PUSH1 0x40 MLOAD PUSH32 0x500C44B400000000000000000000000000000000000000000000000000000000 DUP2 MSTORE PUSH1 0x4 ADD PUSH1 0x40 MLOAD DUP1 SWAP2 SUB SWAP1 REVERT JUMPDEST PUSH2 0x30B DUP8 DUP8 DUP8 DUP8 DUP8 DUP8 PUSH2 0x329 JUMP JUMPDEST POP POP POP POP POP POP POP POP JUMP JUMPDEST PUSH1 0x0 DUP1 SLOAD SWAP1 POP SWAP1 JUMP JUMPDEST POP POP POP POP POP POP POP POP POP JUMP JUMPDEST POP POP POP POP POP POP JUMP JUMPDEST PUSH1 0x0 PUSH20 0xFFFFFFFFFFFFFFFFFFFFFFFFFFFFFFFFFFFFFFFF DUP3 AND SWAP1 POP SWAP2 SWAP1 POP JUMP JUMPDEST PUSH1 0x0 DUP2 SWAP1 POP SWAP2 SWAP1 POP JUMP JUMPDEST PUSH1 0x0 PUSH2 0x376 PUSH2 0x371 PUSH2 0x36C DUP5 PUSH2 0x331 JUMP JUMPDEST PUSH2 0x351 JUMP JUMPDEST PUSH2 0x331 JUMP JUMPDEST SWAP1 POP SWAP2 SWAP1 POP JUMP JUMPDEST PUSH1 0x0 PUSH2 0x388 DUP3 PUSH2 0x35B JUMP JUMPDEST SWAP1 POP SWAP2 SWAP1 POP JUMP JUMPDEST PUSH1 0x0 PUSH2 0x39A DUP3 PUSH2 0x37D JUMP JUMPDEST SWAP1 POP SWAP2 SWAP1 POP JUMP JUMPDEST PUSH2 0x3AA DUP2 PUSH2 0x38F JUMP JUMPDEST DUP3 MSTORE POP POP JUMP JUMPDEST PUSH1 0x0 PUSH1 0x20 DUP3 ADD SWAP1 POP PUSH2 0x3C5 PUSH1 0x0 DUP4 ADD DUP5 PUSH2 0x3A1 JUMP JUMPDEST SWAP3 SWAP2 POP POP JUMP JUMPDEST PUSH1 0x0 DUP1 REVERT JUMPDEST PUSH1 0x0 DUP1 REVERT JUMPDEST PUSH1 0x0 DUP2 SWAP1 POP SWAP2 SWAP1 POP JUMP JUMPDEST PUSH2 0x3E8 DUP2 PUSH2 0x3D5 JUMP JUMPDEST DUP2 EQ PUSH2 0x3F3 JUMPI PUSH1 0x0 DUP1 REVERT JUMPDEST POP JUMP JUMPDEST PUSH1 0x0 DUP2 CALLDATALOAD SWAP1 POP PUSH2 0x405 DUP2 PUSH2 0x3DF JUMP JUMPDEST SWAP3 SWAP2 POP POP JUMP JUMPDEST PUSH1 0x0 DUP1 REVERT JUMPDEST PUSH1 0x0 DUP1 REVERT JUMPDEST PUSH1 0x0 DUP1 REVERT JUMPDEST PUSH1 0x0 DUP1 DUP4 PUSH1 0x1F DUP5 ADD SLT PUSH2 0x430 JUMPI PUSH2 0x42F PUSH2 0x40B JUMP JUMPDEST JUMPDEST DUP3 CALLDATALOAD SWAP1 POP PUSH8 0xFFFFFFFFFFFFFFFF DUP2 GT ISZERO PUSH2 0x44D JUMPI PUSH2 0x44C PUSH2 0x410 JUMP JUMPDEST JUMPDEST PUSH1 0x20 DUP4 ADD SWAP2 POP DUP4 PUSH1 0x1 DUP3 MUL DUP4 ADD GT ISZERO PUSH2 0x469 JUMPI PUSH2 0x468 PUSH2 0x415 JUMP JUMPDEST JUMPDEST SWAP3 POP SWAP3 SWAP1 POP JUMP JUMPDEST PUSH1 0x0 DUP1 DUP4 PUSH1 0x1F DUP5 ADD SLT PUSH2 0x486 JUMPI PUSH2 0x485 PUSH2 0x40B JUMP JUMPDEST JUMPDEST DUP3 CALLDATALOAD SWAP1 POP PUSH8 0xFFFFFFFFFFFFFFFF DUP2 GT ISZERO PUSH2 0x4A3 JUMPI PUSH2 0x4A2 PUSH2 0x410 JUMP JUMPDEST JUMPDEST PUSH1 0x20 DUP4 ADD SWAP2 POP DUP4 PUSH1 0x1 DUP3 MUL DUP4 ADD GT ISZERO PUSH2 0x4BF JUMPI PUSH2 0x4BE PUSH2 0x415 JUMP JUMPDEST JUMPDEST SWAP3 POP SWAP3 SWAP1 POP JUMP JUMPDEST PUSH1 0x0 DUP2 SWAP1 POP SWAP2 SWAP1 POP JUMP JUMPDEST PUSH2 0x4D9 DUP2 PUSH2 0x4C6 JUMP JUMPDEST DUP2 EQ PUSH2 0x4E4 JUMPI PUSH1 0x0 DUP1 REVERT JUMPDEST POP JUMP JUMPDEST PUSH1 0x0 DUP2 CALLDATALOAD SWAP1 POP PUSH2 0x4F6 DUP2 PUSH2 0x4D0 JUMP JUMPDEST SWAP3 SWAP2 POP POP JUMP JUMPDEST PUSH1 0x0 DUP1 PUSH1 0x0 DUP1 PUSH1 0x0 DUP1 PUSH1 0x0 DUP1 PUSH1 0x0 DUP1 PUSH1 0xC0 DUP12 DUP14 SUB SLT ISZERO PUSH2 0x51F JUMPI PUSH2 0x51E PUSH2 0x3CB JUMP JUMPDEST JUMPDEST PUSH1 0x0 PUSH2 0x52D DUP14 DUP3 DUP15 ADD PUSH2 0x3F6 JUMP JUMPDEST SWAP11 POP POP PUSH1 0x20 DUP12 ADD CALLDATALOAD PUSH8 0xFFFFFFFFFFFFFFFF DUP2 GT ISZERO PUSH2 0x54E JUMPI PUSH2 0x54D PUSH2 0x3D0 JUMP JUMPDEST JUMPDEST PUSH2 0x55A DUP14 DUP3 DUP15 ADD PUSH2 0x41A JUMP JUMPDEST SWAP10 POP SWAP10 POP POP PUSH1 0x40 DUP12 ADD CALLDATALOAD PUSH8 0xFFFFFFFFFFFFFFFF DUP2 GT ISZERO PUSH2 0x57D JUMPI PUSH2 0x57C PUSH2 0x3D0 JUMP JUMPDEST JUMPDEST PUSH2 0x589 DUP14 DUP3 DUP15 ADD PUSH2 0x41A JUMP JUMPDEST SWAP8 POP SWAP8 POP POP PUSH1 0x60 DUP12 ADD CALLDATALOAD PUSH8 0xFFFFFFFFFFFFFFFF DUP2 GT ISZERO PUSH2 0x5AC JUMPI PUSH2 0x5AB PUSH2 0x3D0 JUMP JUMPDEST JUMPDEST PUSH2 0x5B8 DUP14 DUP3 DUP15 ADD PUSH2 0x470 JUMP JUMPDEST SWAP6 POP SWAP6 POP POP PUSH1 0x80 DUP12 ADD CALLDATALOAD PUSH8 0xFFFFFFFFFFFFFFFF DUP2 GT ISZERO PUSH2 0x5DB JUMPI PUSH2 0x5DA PUSH2 0x3D0 JUMP JUMPDEST JUMPDEST PUSH2 0x5E7 DUP14 DUP3 DUP15 ADD PUSH2 0x41A JUMP JUMPDEST SWAP4 POP SWAP4 POP POP PUSH1 0xA0 PUSH2 0x5FA DUP14 DUP3 DUP15 ADD PUSH2 0x4E7 JUMP JUMPDEST SWAP2 POP POP SWAP3 SWAP6 SWAP9 SWAP12 SWAP2 SWAP5 SWAP8 SWAP11 POP SWAP3 SWAP6 SWAP9 POP JUMP JUMPDEST PUSH1 0x0 DUP1 PUSH1 0x0 DUP1 PUSH1 0x0 DUP1 PUSH1 0x0 PUSH1 0x80 DUP9 DUP11 SUB SLT ISZERO PUSH2 0x62B JUMPI PUSH2 0x62A PUSH2 0x3CB JUMP JUMPDEST JUMPDEST PUSH1 0x0 PUSH2 0x639 DUP11 DUP3 DUP12 ADD PUSH2 0x3F6 JUMP JUMPDEST SWAP8 POP POP PUSH1 0x20 DUP9 ADD CALLDATALOAD PUSH8 0xFFFFFFFFFFFFFFFF DUP2 GT ISZERO PUSH2 0x65A JUMPI PUSH2 0x659 PUSH2 0x3D0 JUMP JUMPDEST JUMPDEST PUSH2 0x666 DUP11 DUP3 DUP12 ADD PUSH2 0x41A JUMP JUMPDEST SWAP7 POP SWAP7 POP POP PUSH1 0x40 DUP9 ADD CALLDATALOAD PUSH8 0xFFFFFFFFFFFFFFFF DUP2 GT ISZERO PUSH2 0x689 JUMPI PUSH2 0x688 PUSH2 0x3D0 JUMP JUMPDEST JUMPDEST PUSH2 0x695 DUP11 DUP3 DUP12 ADD PUSH2 0x41A JUMP JUMPDEST SWAP5 POP SWAP5 POP POP PUSH1 0x60 DUP9 ADD CALLDATALOAD PUSH8 0xFFFFFFFFFFFFFFFF DUP2 GT ISZERO PUSH2 0x6B8 JUMPI PUSH2 0x6B7 PUSH2 0x3D0 JUMP JUMPDEST JUMPDEST PUSH2 0x6C4 DUP11 DUP3 DUP12 ADD PUSH2 0x470 JUMP JUMPDEST SWAP3 POP SWAP3 POP POP SWAP3 SWAP6 SWAP9 SWAP2 SWAP5 SWAP8 POP SWAP3 SWAP6 POP JUMP JUMPDEST PUSH2 0x6DE DUP2 PUSH2 0x4C6 JUMP JUMPDEST DUP3 MSTORE POP POP JUMP JUMPDEST PUSH1 0x0 PUSH1 0x20 DUP3 ADD SWAP1 POP PUSH2 0x6F9 PUSH1 0x0 DUP4 ADD DUP5 PUSH2 0x6D5 JUMP JUMPDEST SWAP3 SWAP2 POP POP JUMP JUMPDEST PUSH1 0x0 DUP2 SWAP1 POP SWAP3 SWAP2 POP POP JUMP JUMPDEST DUP3 DUP2 DUP4 CALLDATACOPY PUSH1 0x0 DUP4 DUP4 ADD MSTORE POP POP POP JUMP JUMPDEST PUSH1 0x0 PUSH2 0x725 DUP4 DUP6 PUSH2 0x6FF JUMP JUMPDEST SWAP4 POP PUSH2 0x732 DUP4 DUP6 DUP5 PUSH2 0x70A JUMP JUMPDEST DUP3 DUP5 ADD SWAP1 POP SWAP4 SWAP3 POP POP POP JUMP JUMPDEST PUSH1 0x0 PUSH2 0x74B DUP3 DUP5 DUP7 PUSH2 0x719 JUMP JUMPDEST SWAP2 POP DUP2 SWAP1 POP SWAP4 SWAP3 POP POP POP JUMP JUMPDEST PUSH2 0x760 DUP2 PUSH2 0x3D5 JUMP JUMPDEST DUP3 MSTORE POP POP JUMP JUMPDEST PUSH1 0x0 DUP3 DUP3 MSTORE PUSH1 0x20 DUP3 ADD SWAP1 POP SWAP3 SWAP2 POP POP JUMP JUMPDEST PUSH1 0x0 PUSH1 0x1F NOT PUSH1 0x1F DUP4 ADD AND SWAP1 POP SWAP2 SWAP1 POP JUMP JUMPDEST PUSH1 0x0 PUSH2 0x794 DUP4 DUP6 PUSH2 0x766 JUMP JUMPDEST SWAP4 POP PUSH2 0x7A1 DUP4 DUP6 DUP5 PUSH2 0x70A JUMP JUMPDEST PUSH2 0x7AA DUP4 PUSH2 0x777 JUMP JUMPDEST DUP5 ADD SWAP1 POP SWAP4 SWAP3 POP POP POP JUMP JUMPDEST PUSH1 0x0 PUSH1 0xC0 DUP3 ADD SWAP1 POP PUSH2 0x7CA PUSH1 0x0 DUP4 ADD DUP13 PUSH2 0x757 JUMP JUMPDEST DUP2 DUP2 SUB PUSH1 0x20 DUP4 ADD MSTORE PUSH2 0x7DD DUP2 DUP11 DUP13 PUSH2 0x788 JUMP JUMPDEST SWAP1 POP DUP2 DUP2 SUB PUSH1 0x40 DUP4 ADD MSTORE PUSH2 0x7F2 DUP2 DUP9 DUP11 PUSH2 0x788 JUMP JUMPDEST SWAP1 POP PUSH2 0x801 PUSH1 0x60 DUP4 ADD DUP8 PUSH2 0x757 JUMP JUMPDEST DUP2 DUP2 SUB PUSH1 0x80 DUP4 ADD MSTORE PUSH2 0x814 DUP2 DUP6 DUP8 PUSH2 0x788 JUMP JUMPDEST SWAP1 POP PUSH2 0x823 PUSH1 0xA0 DUP4 ADD DUP5 PUSH2 0x6D5 JUMP JUMPDEST SWAP11 SWAP10 POP POP POP POP POP POP POP POP POP POP JUMP JUMPDEST PUSH1 0x0 DUP2 ISZERO ISZERO SWAP1 POP SWAP2 SWAP1 POP JUMP JUMPDEST PUSH2 0x846 DUP2 PUSH2 0x831 JUMP JUMPDEST DUP2 EQ PUSH2 0x851 JUMPI PUSH1 0x0 DUP1 REVERT JUMPDEST POP JUMP JUMPDEST PUSH1 0x0 DUP2 MLOAD SWAP1 POP PUSH2 0x863 DUP2 PUSH2 0x83D JUMP JUMPDEST SWAP3 SWAP2 POP POP JUMP JUMPDEST PUSH1 0x0 PUSH1 0x20 DUP3 DUP5 SUB SLT ISZERO PUSH2 0x87F JUMPI PUSH2 0x87E PUSH2 0x3CB JUMP JUMPDEST JUMPDEST PUSH1 0x0 PUSH2 0x88D DUP5 DUP3 DUP6 ADD PUSH2 0x854 JUMP JUMPDEST SWAP2 POP POP SWAP3 SWAP2 POP POP JUMP JUMPDEST PUSH1 0x0 PUSH1 0x80 DUP3 ADD SWAP1 POP PUSH2 0x8AB PUSH1 0x0 DUP4 ADD DUP10 PUSH2 0x757 JUMP JUMPDEST DUP2 DUP2 SUB PUSH1 0x20 DUP4 ADD MSTORE PUSH2 0x8BE DUP2 DUP8 DUP10 PUSH2 0x788 JUMP JUMPDEST SWAP1 POP DUP2 DUP2 SUB PUSH1 0x40 DUP4 ADD MSTORE PUSH2 0x8D3 DUP2 DUP6 DUP8 PUSH2 0x788 JUMP JUMPDEST SWAP1 POP PUSH2 0x8E2 PUSH1 0x60 DUP4 ADD DUP5 PUSH2 0x757 JUMP JUMPDEST SWAP8 SWAP7 POP POP POP POP POP POP POP JUMP INVALID LOG2 PUSH5 0x6970667358 0x22 SLT KECCAK256 0xB4 SWAP9 0xC9 BASEFEE DUP15 SHL SWAP13 MULMOD PUSH18 0x7CBEBF0E0C32F5A289C3D9F994D72DB93558 0xAA PUSH14 0xFDE90064736F6C63430008120033 "},"methodIdentifiers":{"execute(bytes32,string,string,bytes)":"49160658","executeWithToken(bytes32,string,string,bytes,string,uint256)":"1a98b2e0","gateway()":"116191b6","getNumber()":"f2c9ecd8"}}}}}