{
  "_format": "hh-sol-artifact-1",
  "contractName": "Protocol",
  "sourceName": "contracts/Protocol.sol",
  "abi": [
    {
      "inputs": [
        {
          "internalType": "address",
          "name": "gateway_",
          "type": "address"
        },
        {
          "internalType": "address",
          "name": "gasReceiver_",
          "type": "address"
        },
        {
          "internalType": "address",
          "name": "proxyContract_",
          "type": "address"
        }
      ],
      "stateMutability": "nonpayable",
      "type": "constructor"
    },
    {
      "inputs": [],
      "name": "InvalidAddress",
      "type": "error"
    },
    {
      "inputs": [],
      "name": "NotApprovedByGateway",
      "type": "error"
    },
    {
      "inputs": [
        {
          "internalType": "bytes32",
          "name": "commandId",
          "type": "bytes32"
        },
        {
          "internalType": "string",
          "name": "sourceChain",
          "type": "string"
        },
        {
          "internalType": "string",
          "name": "sourceAddress",
          "type": "string"
        },
        {
          "internalType": "bytes",
          "name": "payload",
          "type": "bytes"
        }
      ],
      "name": "execute",
      "outputs": [],
      "stateMutability": "nonpayable",
      "type": "function"
    },
    {
      "inputs": [
        {
          "internalType": "bytes32",
          "name": "commandId",
          "type": "bytes32"
        },
        {
          "internalType": "string",
          "name": "sourceChain",
          "type": "string"
        },
        {
          "internalType": "string",
          "name": "sourceAddress",
          "type": "string"
        },
        {
          "internalType": "bytes",
          "name": "payload",
          "type": "bytes"
        },
        {
          "internalType": "string",
          "name": "tokenSymbol",
          "type": "string"
        },
        {
          "internalType": "uint256",
          "name": "amount",
          "type": "uint256"
        }
      ],
      "name": "executeWithToken",
      "outputs": [],
      "stateMutability": "nonpayable",
      "type": "function"
    },
    {
      "inputs": [],
      "name": "gateway",
      "outputs": [
        {
          "internalType": "contract IAxelarGateway",
          "name": "",
          "type": "address"
        }
      ],
      "stateMutability": "view",
      "type": "function"
    },
    {
      "inputs": [],
      "name": "getProxyContract",
      "outputs": [
        {
          "internalType": "address",
          "name": "",
          "type": "address"
        }
      ],
      "stateMutability": "view",
      "type": "function"
    }
  ],
  "bytecode": "0x60a060405234801561001057600080fd5b50604051610c11380380610c1183398181016040528101906100329190610179565b82600073ffffffffffffffffffffffffffffffffffffffff168173ffffffffffffffffffffffffffffffffffffffff1603610099576040517fe6c4247b00000000000000000000000000000000000000000000000000000000815260040160405180910390fd5b8073ffffffffffffffffffffffffffffffffffffffff1660808173ffffffffffffffffffffffffffffffffffffffff168152505050806000806101000a81548173ffffffffffffffffffffffffffffffffffffffff021916908373ffffffffffffffffffffffffffffffffffffffff1602179055505050506101cc565b600080fd5b600073ffffffffffffffffffffffffffffffffffffffff82169050919050565b60006101468261011b565b9050919050565b6101568161013b565b811461016157600080fd5b50565b6000815190506101738161014d565b92915050565b60008060006060848603121561019257610191610116565b5b60006101a086828701610164565b93505060206101b186828701610164565b92505060406101c286828701610164565b9150509250925092565b608051610a1d6101f46000396000818160f001528181610130015261024c0152610a1d6000f3fe608060405234801561001057600080fd5b506004361061004c5760003560e01c806306c2b39014610051578063116191b61461006f5780631a98b2e01461008d57806349160658146100a9575b600080fd5b6100596100c5565b60405161006691906103e0565b60405180910390f35b6100776100ee565b604051610084919061045a565b60405180910390f35b6100a760048036038101906100a291906105a6565b610112565b005b6100c360048036038101906100be91906106b6565b61022e565b005b60008060009054906101000a900473ffffffffffffffffffffffffffffffffffffffff16905090565b7f000000000000000000000000000000000000000000000000000000000000000081565b600085856040516101249291906107be565b604051809103902090507f000000000000000000000000000000000000000000000000000000000000000073ffffffffffffffffffffffffffffffffffffffff16631876eed98c8c8c8c8c878b8b8b6040518a63ffffffff1660e01b815260040161019799989796959493929190610844565b6020604051808303816000875af11580156101b6573d6000803e3d6000fd5b505050506040513d601f19601f820116820180604052508101906101da91906108f8565b610210576040517f500c44b400000000000000000000000000000000000000000000000000000000815260040160405180910390fd5b6102218a8a8a8a8a8a8a8a8a61033e565b5050505050505050505050565b600082826040516102409291906107be565b604051809103902090507f000000000000000000000000000000000000000000000000000000000000000073ffffffffffffffffffffffffffffffffffffffff16635f6970c38989898989876040518763ffffffff1660e01b81526004016102ad96959493929190610925565b6020604051808303816000875af11580156102cc573d6000803e3d6000fd5b505050506040513d601f19601f820116820180604052508101906102f091906108f8565b610326576040517f500c44b400000000000000000000000000000000000000000000000000000000815260040160405180910390fd5b610334878787878787610349565b5050505050505050565b505050505050505050565b818181019061035891906109ba565b6000806101000a81548173ffffffffffffffffffffffffffffffffffffffff021916908373ffffffffffffffffffffffffffffffffffffffff160217905550505050505050565b600073ffffffffffffffffffffffffffffffffffffffff82169050919050565b60006103ca8261039f565b9050919050565b6103da816103bf565b82525050565b60006020820190506103f560008301846103d1565b92915050565b6000819050919050565b600061042061041b6104168461039f565b6103fb565b61039f565b9050919050565b600061043282610405565b9050919050565b600061044482610427565b9050919050565b61045481610439565b82525050565b600060208201905061046f600083018461044b565b92915050565b600080fd5b600080fd5b6000819050919050565b6104928161047f565b811461049d57600080fd5b50565b6000813590506104af81610489565b92915050565b600080fd5b600080fd5b600080fd5b60008083601f8401126104da576104d96104b5565b5b8235905067ffffffffffffffff8111156104f7576104f66104ba565b5b602083019150836001820283011115610513576105126104bf565b5b9250929050565b60008083601f8401126105305761052f6104b5565b5b8235905067ffffffffffffffff81111561054d5761054c6104ba565b5b602083019150836001820283011115610569576105686104bf565b5b9250929050565b6000819050919050565b61058381610570565b811461058e57600080fd5b50565b6000813590506105a08161057a565b92915050565b60008060008060008060008060008060c08b8d0312156105c9576105c8610475565b5b60006105d78d828e016104a0565b9a505060208b013567ffffffffffffffff8111156105f8576105f761047a565b5b6106048d828e016104c4565b995099505060408b013567ffffffffffffffff8111156106275761062661047a565b5b6106338d828e016104c4565b975097505060608b013567ffffffffffffffff8111156106565761065561047a565b5b6106628d828e0161051a565b955095505060808b013567ffffffffffffffff8111156106855761068461047a565b5b6106918d828e016104c4565b935093505060a06106a48d828e01610591565b9150509295989b9194979a5092959850565b60008060008060008060006080888a0312156106d5576106d4610475565b5b60006106e38a828b016104a0565b975050602088013567ffffffffffffffff8111156107045761070361047a565b5b6107108a828b016104c4565b9650965050604088013567ffffffffffffffff8111156107335761073261047a565b5b61073f8a828b016104c4565b9450945050606088013567ffffffffffffffff8111156107625761076161047a565b5b61076e8a828b0161051a565b925092505092959891949750929550565b600081905092915050565b82818337600083830152505050565b60006107a5838561077f565b93506107b283858461078a565b82840190509392505050565b60006107cb828486610799565b91508190509392505050565b6107e08161047f565b82525050565b600082825260208201905092915050565b6000601f19601f8301169050919050565b600061081483856107e6565b935061082183858461078a565b61082a836107f7565b840190509392505050565b61083e81610570565b82525050565b600060c082019050610859600083018c6107d7565b818103602083015261086c818a8c610808565b9050818103604083015261088181888a610808565b905061089060608301876107d7565b81810360808301526108a3818587610808565b90506108b260a0830184610835565b9a9950505050505050505050565b60008115159050919050565b6108d5816108c0565b81146108e057600080fd5b50565b6000815190506108f2816108cc565b92915050565b60006020828403121561090e5761090d610475565b5b600061091c848285016108e3565b91505092915050565b600060808201905061093a60008301896107d7565b818103602083015261094d818789610808565b90508181036040830152610962818587610808565b905061097160608301846107d7565b979650505050505050565b60006109878261039f565b9050919050565b6109978161097c565b81146109a257600080fd5b50565b6000813590506109b48161098e565b92915050565b6000602082840312156109d0576109cf610475565b5b60006109de848285016109a5565b9150509291505056fea264697066735822122068c5b1b583ad351809d11b5af0fc415ca36502df74a6dec92cfc8cf4f64627f064736f6c63430008120033",
  "linkReferences": {},
  "deployedLinkReferences": {}
}