{
  "_format": "hh-sol-artifact-1",
  "contractName": "Protocol",
  "sourceName": "contracts/Protocol.sol",
  "abi": [
    {
      "inputs": [
        {
          "internalType": "address",
          "name": "gateway_",
          "type": "address"
        },
        {
          "internalType": "address",
          "name": "gasReceiver_",
          "type": "address"
        },
        {
          "internalType": "uint256",
          "name": "number_",
          "type": "uint256"
        }
      ],
      "stateMutability": "nonpayable",
      "type": "constructor"
    },
    {
      "inputs": [],
      "name": "InvalidAddress",
      "type": "error"
    },
    {
      "inputs": [],
      "name": "NotApprovedByGateway",
      "type": "error"
    },
    {
      "inputs": [
        {
          "internalType": "bytes32",
          "name": "commandId",
          "type": "bytes32"
        },
        {
          "internalType": "string",
          "name": "sourceChain",
          "type": "string"
        },
        {
          "internalType": "string",
          "name": "sourceAddress",
          "type": "string"
        },
        {
          "internalType": "bytes",
          "name": "payload",
          "type": "bytes"
        }
      ],
      "name": "execute",
      "outputs": [],
      "stateMutability": "nonpayable",
      "type": "function"
    },
    {
      "inputs": [
        {
          "internalType": "bytes32",
          "name": "commandId",
          "type": "bytes32"
        },
        {
          "internalType": "string",
          "name": "sourceChain",
          "type": "string"
        },
        {
          "internalType": "string",
          "name": "sourceAddress",
          "type": "string"
        },
        {
          "internalType": "bytes",
          "name": "payload",
          "type": "bytes"
        },
        {
          "internalType": "string",
          "name": "tokenSymbol",
          "type": "string"
        },
        {
          "internalType": "uint256",
          "name": "amount",
          "type": "uint256"
        }
      ],
      "name": "executeWithToken",
      "outputs": [],
      "stateMutability": "nonpayable",
      "type": "function"
    },
    {
      "inputs": [],
      "name": "gateway",
      "outputs": [
        {
          "internalType": "contract IAxelarGateway",
          "name": "",
          "type": "address"
        }
      ],
      "stateMutability": "view",
      "type": "function"
    },
    {
      "inputs": [],
      "name": "getNumber",
      "outputs": [
        {
          "internalType": "uint256",
          "name": "",
          "type": "uint256"
        }
      ],
      "stateMutability": "view",
      "type": "function"
    }
  ],
  "bytecode": "0x60a060405234801561001057600080fd5b50604051610b14380380610b1483398181016040528101906100329190610176565b82600073ffffffffffffffffffffffffffffffffffffffff168173ffffffffffffffffffffffffffffffffffffffff1603610099576040517fe6c4247b00000000000000000000000000000000000000000000000000000000815260040160405180910390fd5b8073ffffffffffffffffffffffffffffffffffffffff1660808173ffffffffffffffffffffffffffffffffffffffff168152505050806000819055505050506101c9565b600080fd5b600073ffffffffffffffffffffffffffffffffffffffff82169050919050565b600061010d826100e2565b9050919050565b61011d81610102565b811461012857600080fd5b50565b60008151905061013a81610114565b92915050565b6000819050919050565b61015381610140565b811461015e57600080fd5b50565b6000815190506101708161014a565b92915050565b60008060006060848603121561018f5761018e6100dd565b5b600061019d8682870161012b565b93505060206101ae8682870161012b565b92505060406101bf86828701610161565b9150509250925092565b6080516109236101f16000396000818160c701528181610107015261022301526109236000f3fe608060405234801561001057600080fd5b506004361061004c5760003560e01c8063116191b6146100515780631a98b2e01461006f578063491606581461008b578063f2c9ecd8146100a7575b600080fd5b6100596100c5565b60405161006691906103b0565b60405180910390f35b610089600480360381019061008491906104fc565b6100e9565b005b6100a560048036038101906100a0919061060c565b610205565b005b6100af610315565b6040516100bc91906106e4565b60405180910390f35b7f000000000000000000000000000000000000000000000000000000000000000081565b600085856040516100fb92919061073e565b604051809103902090507f000000000000000000000000000000000000000000000000000000000000000073ffffffffffffffffffffffffffffffffffffffff16631876eed98c8c8c8c8c878b8b8b6040518a63ffffffff1660e01b815260040161016e999897969594939291906107b5565b6020604051808303816000875af115801561018d573d6000803e3d6000fd5b505050506040513d601f19601f820116820180604052508101906101b19190610869565b6101e7576040517f500c44b400000000000000000000000000000000000000000000000000000000815260040160405180910390fd5b6101f88a8a8a8a8a8a8a8a8a61031e565b5050505050505050505050565b6000828260405161021792919061073e565b604051809103902090507f000000000000000000000000000000000000000000000000000000000000000073ffffffffffffffffffffffffffffffffffffffff16635f6970c38989898989876040518763ffffffff1660e01b815260040161028496959493929190610896565b6020604051808303816000875af11580156102a3573d6000803e3d6000fd5b505050506040513d601f19601f820116820180604052508101906102c79190610869565b6102fd576040517f500c44b400000000000000000000000000000000000000000000000000000000815260040160405180910390fd5b61030b878787878787610329565b5050505050505050565b60008054905090565b505050505050505050565b505050505050565b600073ffffffffffffffffffffffffffffffffffffffff82169050919050565b6000819050919050565b600061037661037161036c84610331565b610351565b610331565b9050919050565b60006103888261035b565b9050919050565b600061039a8261037d565b9050919050565b6103aa8161038f565b82525050565b60006020820190506103c560008301846103a1565b92915050565b600080fd5b600080fd5b6000819050919050565b6103e8816103d5565b81146103f357600080fd5b50565b600081359050610405816103df565b92915050565b600080fd5b600080fd5b600080fd5b60008083601f8401126104305761042f61040b565b5b8235905067ffffffffffffffff81111561044d5761044c610410565b5b60208301915083600182028301111561046957610468610415565b5b9250929050565b60008083601f8401126104865761048561040b565b5b8235905067ffffffffffffffff8111156104a3576104a2610410565b5b6020830191508360018202830111156104bf576104be610415565b5b9250929050565b6000819050919050565b6104d9816104c6565b81146104e457600080fd5b50565b6000813590506104f6816104d0565b92915050565b60008060008060008060008060008060c08b8d03121561051f5761051e6103cb565b5b600061052d8d828e016103f6565b9a505060208b013567ffffffffffffffff81111561054e5761054d6103d0565b5b61055a8d828e0161041a565b995099505060408b013567ffffffffffffffff81111561057d5761057c6103d0565b5b6105898d828e0161041a565b975097505060608b013567ffffffffffffffff8111156105ac576105ab6103d0565b5b6105b88d828e01610470565b955095505060808b013567ffffffffffffffff8111156105db576105da6103d0565b5b6105e78d828e0161041a565b935093505060a06105fa8d828e016104e7565b9150509295989b9194979a5092959850565b60008060008060008060006080888a03121561062b5761062a6103cb565b5b60006106398a828b016103f6565b975050602088013567ffffffffffffffff81111561065a576106596103d0565b5b6106668a828b0161041a565b9650965050604088013567ffffffffffffffff811115610689576106886103d0565b5b6106958a828b0161041a565b9450945050606088013567ffffffffffffffff8111156106b8576106b76103d0565b5b6106c48a828b01610470565b925092505092959891949750929550565b6106de816104c6565b82525050565b60006020820190506106f960008301846106d5565b92915050565b600081905092915050565b82818337600083830152505050565b600061072583856106ff565b935061073283858461070a565b82840190509392505050565b600061074b828486610719565b91508190509392505050565b610760816103d5565b82525050565b600082825260208201905092915050565b6000601f19601f8301169050919050565b60006107948385610766565b93506107a183858461070a565b6107aa83610777565b840190509392505050565b600060c0820190506107ca600083018c610757565b81810360208301526107dd818a8c610788565b905081810360408301526107f281888a610788565b90506108016060830187610757565b8181036080830152610814818587610788565b905061082360a08301846106d5565b9a9950505050505050505050565b60008115159050919050565b61084681610831565b811461085157600080fd5b50565b6000815190506108638161083d565b92915050565b60006020828403121561087f5761087e6103cb565b5b600061088d84828501610854565b91505092915050565b60006080820190506108ab6000830189610757565b81810360208301526108be818789610788565b905081810360408301526108d3818587610788565b90506108e26060830184610757565b97965050505050505056fea2646970667358221220b498c9488e1b9c09717cbebf0e0c32f5a289c3d9f994d72db93558aa6dfde90064736f6c63430008120033",
  "linkReferences": {},
  "deployedLinkReferences": {}
}